{
  "address": "0x5FbDB2315678afecb367f032d93F642f64180aa3",
  "abi": [
    {
      "inputs": [
        {
          "internalType": "address",
          "name": "_owner",
          "type": "address"
        }
      ],
      "stateMutability": "nonpayable",
      "type": "constructor"
    },
    {
      "inputs": [],
      "name": "EnforcedPause",
      "type": "error"
    },
    {
      "inputs": [],
      "name": "ExpectedPause",
      "type": "error"
    },
    {
      "inputs": [
        {
          "internalType": "address",
          "name": "owner",
          "type": "address"
        }
      ],
      "name": "OwnableInvalidOwner",
      "type": "error"
    },
    {
      "inputs": [
        {
          "internalType": "address",
          "name": "account",
          "type": "address"
        }
      ],
      "name": "OwnableUnauthorizedAccount",
      "type": "error"
    },
    {
      "anonymous": false,
      "inputs": [
        {
          "indexed": true,
          "internalType": "address",
          "name": "previousOwner",
          "type": "address"
        },
        {
          "indexed": true,
          "internalType": "address",
          "name": "newOwner",
          "type": "address"
        }
      ],
      "name": "OwnershipTransferred",
      "type": "event"
    },
    {
      "anonymous": false,
      "inputs": [
        {
          "indexed": false,
          "internalType": "address",
          "name": "account",
          "type": "address"
        }
      ],
      "name": "Paused",
      "type": "event"
    },
    {
      "anonymous": false,
      "inputs": [
        {
          "indexed": false,
          "internalType": "address",
          "name": "account",
          "type": "address"
        }
      ],
      "name": "Unpaused",
      "type": "event"
    },
    {
      "inputs": [
        {
          "internalType": "string",
          "name": "_name",
          "type": "string"
        },
        {
          "internalType": "string",
          "name": "_description",
          "type": "string"
        },
        {
          "internalType": "uint256",
          "name": "_goal",
          "type": "uint256"
        },
        {
          "internalType": "uint256",
          "name": "_durationInDays",
          "type": "uint256"
        }
      ],
      "name": "createCampaign",
      "outputs": [],
      "stateMutability": "nonpayable",
      "type": "function"
    },
    {
      "inputs": [],
      "name": "getALlCampaigns",
      "outputs": [
        {
          "components": [
            {
              "internalType": "address",
              "name": "owner",
              "type": "address"
            },
            {
              "internalType": "address",
              "name": "campaignAddress",
              "type": "address"
            },
            {
              "internalType": "string",
              "name": "name",
              "type": "string"
            },
            {
              "internalType": "uint256",
              "name": "creationTime",
              "type": "uint256"
            }
          ],
          "internalType": "struct CrowdfundingFactory.Campaign[]",
          "name": "",
          "type": "tuple[]"
        }
      ],
      "stateMutability": "view",
      "type": "function"
    },
    {
      "inputs": [
        {
          "internalType": "address",
          "name": "_user",
          "type": "address"
        }
      ],
      "name": "getUserCampaigns",
      "outputs": [
        {
          "components": [
            {
              "internalType": "address",
              "name": "owner",
              "type": "address"
            },
            {
              "internalType": "address",
              "name": "campaignAddress",
              "type": "address"
            },
            {
              "internalType": "string",
              "name": "name",
              "type": "string"
            },
            {
              "internalType": "uint256",
              "name": "creationTime",
              "type": "uint256"
            }
          ],
          "internalType": "struct CrowdfundingFactory.Campaign[]",
          "name": "",
          "type": "tuple[]"
        }
      ],
      "stateMutability": "view",
      "type": "function"
    },
    {
      "inputs": [],
      "name": "owner",
      "outputs": [
        {
          "internalType": "address",
          "name": "",
          "type": "address"
        }
      ],
      "stateMutability": "view",
      "type": "function"
    },
    {
      "inputs": [],
      "name": "pause",
      "outputs": [],
      "stateMutability": "nonpayable",
      "type": "function"
    },
    {
      "inputs": [],
      "name": "paused",
      "outputs": [
        {
          "internalType": "bool",
          "name": "",
          "type": "bool"
        }
      ],
      "stateMutability": "view",
      "type": "function"
    },
    {
      "inputs": [],
      "name": "renounceOwnership",
      "outputs": [],
      "stateMutability": "nonpayable",
      "type": "function"
    },
    {
      "inputs": [
        {
          "internalType": "address",
          "name": "newOwner",
          "type": "address"
        }
      ],
      "name": "transferOwnership",
      "outputs": [],
      "stateMutability": "nonpayable",
      "type": "function"
    },
    {
      "inputs": [],
      "name": "unpause",
      "outputs": [],
      "stateMutability": "nonpayable",
      "type": "function"
    }
  ],
  "transactionHash": "0xf4065c91f70364e450676f71ded8b6f06d8eafb46a067908a721cb7af840b1b3",
  "args": [
    "0xf39Fd6e51aad88F6F4ce6aB8827279cffFb92266"
  ],
  "numDeployments": 1,
  "solcInputHash": "7ccb37462d7e831fe746519a803546e7",
  "bytecode": "0x608060405234801561001057600080fd5b50604051614415380380614415833981810160405281019061003291906101fd565b8060008060006101000a81548160ff021916908315150217905550600073ffffffffffffffffffffffffffffffffffffffff168173ffffffffffffffffffffffffffffffffffffffff16036100bf5760006040517f1e4fbdf70000000000000000000000000000000000000000000000000000000081526004016100b69190610239565b60405180910390fd5b6100ce816100d560201b60201c565b5050610254565b60008060019054906101000a900473ffffffffffffffffffffffffffffffffffffffff16905081600060016101000a81548173ffffffffffffffffffffffffffffffffffffffff021916908373ffffffffffffffffffffffffffffffffffffffff1602179055508173ffffffffffffffffffffffffffffffffffffffff168173ffffffffffffffffffffffffffffffffffffffff167f8be0079c531659141344cd1fd0a4f28419497f9722a3daafe3b4186f6b6457e060405160405180910390a35050565b600080fd5b600073ffffffffffffffffffffffffffffffffffffffff82169050919050565b60006101ca8261019f565b9050919050565b6101da816101bf565b81146101e557600080fd5b50565b6000815190506101f7816101d1565b92915050565b6000602082840312156102135761021261019a565b5b6000610221848285016101e8565b91505092915050565b610233816101bf565b82525050565b600060208201905061024e600083018461022a565b92915050565b6141b2806102636000396000f3fe608060405234801561001057600080fd5b50600436106100935760003560e01c80638456cb59116100665780638456cb59146100e85780638da5cb5b146100f2578063a1e5084c14610110578063a318f26914610140578063f2fde38b1461015c57610093565b80633f4ba83a146100985780634486c71a146100a25780635c975abb146100c0578063715018a6146100de575b600080fd5b6100a0610178565b005b6100aa61018a565b6040516100b79190610d53565b60405180910390f35b6100c8610331565b6040516100d59190610d90565b60405180910390f35b6100e6610347565b005b6100f061035b565b005b6100fa61036d565b6040516101079190610dba565b60405180910390f35b61012a60048036038101906101259190610e15565b610396565b6040516101379190610d53565b60405180910390f35b61015a60048036038101906101559190610fa3565b61057c565b005b61017660048036038101906101719190610e15565b610818565b005b61018061089e565b610188610925565b565b60606001805480602002602001604051908101604052809291908181526020016000905b8282101561032857838290600052602060002090600402016040518060800160405290816000820160009054906101000a900473ffffffffffffffffffffffffffffffffffffffff1673ffffffffffffffffffffffffffffffffffffffff1673ffffffffffffffffffffffffffffffffffffffff1681526020016001820160009054906101000a900473ffffffffffffffffffffffffffffffffffffffff1673ffffffffffffffffffffffffffffffffffffffff1673ffffffffffffffffffffffffffffffffffffffff16815260200160028201805461028d90611071565b80601f01602080910402602001604051908101604052809291908181526020018280546102b990611071565b80156103065780601f106102db57610100808354040283529160200191610306565b820191906000526020600020905b8154815290600101906020018083116102e957829003601f168201915b50505050508152602001600382015481525050815260200190600101906101ae565b50505050905090565b60008060009054906101000a900460ff16905090565b61034f61089e565b6103596000610987565b565b61036361089e565b61036b610a4c565b565b60008060019054906101000a900473ffffffffffffffffffffffffffffffffffffffff16905090565b6060600260008373ffffffffffffffffffffffffffffffffffffffff1673ffffffffffffffffffffffffffffffffffffffff168152602001908152602001600020805480602002602001604051908101604052809291908181526020016000905b8282101561057157838290600052602060002090600402016040518060800160405290816000820160009054906101000a900473ffffffffffffffffffffffffffffffffffffffff1673ffffffffffffffffffffffffffffffffffffffff1673ffffffffffffffffffffffffffffffffffffffff1681526020016001820160009054906101000a900473ffffffffffffffffffffffffffffffffffffffff1673ffffffffffffffffffffffffffffffffffffffff1673ffffffffffffffffffffffffffffffffffffffff1681526020016002820180546104d690611071565b80601f016020809104026020016040519081016040528092919081815260200182805461050290611071565b801561054f5780601f106105245761010080835404028352916020019161054f565b820191906000526020600020905b81548152906001019060200180831161053257829003601f168201915b50505050508152602001600382015481525050815260200190600101906103f7565b505050509050919050565b610584610aae565b6000338585858560405161059790610b37565b6105a59594939291906110fb565b604051809103906000f0801580156105c1573d6000803e3d6000fd5b5090506000819050600060405180608001604052803373ffffffffffffffffffffffffffffffffffffffff1681526020018373ffffffffffffffffffffffffffffffffffffffff168152602001888152602001428152509050600181908060018154018082558091505060019003906000526020600020906004020160009091909190915060008201518160000160006101000a81548173ffffffffffffffffffffffffffffffffffffffff021916908373ffffffffffffffffffffffffffffffffffffffff16021790555060208201518160010160006101000a81548173ffffffffffffffffffffffffffffffffffffffff021916908373ffffffffffffffffffffffffffffffffffffffff16021790555060408201518160020190816106e99190611308565b50606082015181600301555050600260003373ffffffffffffffffffffffffffffffffffffffff1673ffffffffffffffffffffffffffffffffffffffff16815260200190815260200160002081908060018154018082558091505060019003906000526020600020906004020160009091909190915060008201518160000160006101000a81548173ffffffffffffffffffffffffffffffffffffffff021916908373ffffffffffffffffffffffffffffffffffffffff16021790555060208201518160010160006101000a81548173ffffffffffffffffffffffffffffffffffffffff021916908373ffffffffffffffffffffffffffffffffffffffff16021790555060408201518160020190816108029190611308565b5060608201518160030155505050505050505050565b61082061089e565b600073ffffffffffffffffffffffffffffffffffffffff168173ffffffffffffffffffffffffffffffffffffffff16036108925760006040517f1e4fbdf70000000000000000000000000000000000000000000000000000000081526004016108899190610dba565b60405180910390fd5b61089b81610987565b50565b6108a6610aef565b73ffffffffffffffffffffffffffffffffffffffff166108c461036d565b73ffffffffffffffffffffffffffffffffffffffff1614610923576108e7610aef565b6040517f118cdaa700000000000000000000000000000000000000000000000000000000815260040161091a9190610dba565b60405180910390fd5b565b61092d610af7565b60008060006101000a81548160ff0219169083151502179055507f5db9ee0a495bf2e6ff9c91a7834c1ba4fdd244a5e8aa4e537bd38aeae4b073aa610970610aef565b60405161097d9190610dba565b60405180910390a1565b60008060019054906101000a900473ffffffffffffffffffffffffffffffffffffffff16905081600060016101000a81548173ffffffffffffffffffffffffffffffffffffffff021916908373ffffffffffffffffffffffffffffffffffffffff1602179055508173ffffffffffffffffffffffffffffffffffffffff168173ffffffffffffffffffffffffffffffffffffffff167f8be0079c531659141344cd1fd0a4f28419497f9722a3daafe3b4186f6b6457e060405160405180910390a35050565b610a54610aae565b60016000806101000a81548160ff0219169083151502179055507f62e78cea01bee320cd4e420270b5ea74000d11b0c9f74754ebdbfc544b05a258610a97610aef565b604051610aa49190610dba565b60405180910390a1565b610ab6610331565b15610aed576040517fd93c066500000000000000000000000000000000000000000000000000000000815260040160405180910390fd5b565b600033905090565b610aff610331565b610b35576040517f8dfc202b00000000000000000000000000000000000000000000000000000000815260040160405180910390fd5b565b612da2806113db83390190565b600081519050919050565b600082825260208201905092915050565b6000819050602082019050919050565b600073ffffffffffffffffffffffffffffffffffffffff82169050919050565b6000610b9b82610b70565b9050919050565b610bab81610b90565b82525050565b600081519050919050565b600082825260208201905092915050565b60005b83811015610beb578082015181840152602081019050610bd0565b60008484015250505050565b6000601f19601f8301169050919050565b6000610c1382610bb1565b610c1d8185610bbc565b9350610c2d818560208601610bcd565b610c3681610bf7565b840191505092915050565b6000819050919050565b610c5481610c41565b82525050565b6000608083016000830151610c726000860182610ba2565b506020830151610c856020860182610ba2565b5060408301518482036040860152610c9d8282610c08565b9150506060830151610cb26060860182610c4b565b508091505092915050565b6000610cc98383610c5a565b905092915050565b6000602082019050919050565b6000610ce982610b44565b610cf38185610b4f565b935083602082028501610d0585610b60565b8060005b85811015610d415784840389528151610d228582610cbd565b9450610d2d83610cd1565b925060208a01995050600181019050610d09565b50829750879550505050505092915050565b60006020820190508181036000830152610d6d8184610cde565b905092915050565b60008115159050919050565b610d8a81610d75565b82525050565b6000602082019050610da56000830184610d81565b92915050565b610db481610b90565b82525050565b6000602082019050610dcf6000830184610dab565b92915050565b6000604051905090565b600080fd5b600080fd5b610df281610b90565b8114610dfd57600080fd5b50565b600081359050610e0f81610de9565b92915050565b600060208284031215610e2b57610e2a610ddf565b5b6000610e3984828501610e00565b91505092915050565b600080fd5b600080fd5b7f4e487b7100000000000000000000000000000000000000000000000000000000600052604160045260246000fd5b610e8482610bf7565b810181811067ffffffffffffffff82111715610ea357610ea2610e4c565b5b80604052505050565b6000610eb6610dd5565b9050610ec28282610e7b565b919050565b600067ffffffffffffffff821115610ee257610ee1610e4c565b5b610eeb82610bf7565b9050602081019050919050565b82818337600083830152505050565b6000610f1a610f1584610ec7565b610eac565b905082815260208101848484011115610f3657610f35610e47565b5b610f41848285610ef8565b509392505050565b600082601f830112610f5e57610f5d610e42565b5b8135610f6e848260208601610f07565b91505092915050565b610f8081610c41565b8114610f8b57600080fd5b50565b600081359050610f9d81610f77565b92915050565b60008060008060808587031215610fbd57610fbc610ddf565b5b600085013567ffffffffffffffff811115610fdb57610fda610de4565b5b610fe787828801610f49565b945050602085013567ffffffffffffffff81111561100857611007610de4565b5b61101487828801610f49565b935050604061102587828801610f8e565b925050606061103687828801610f8e565b91505092959194509250565b7f4e487b7100000000000000000000000000000000000000000000000000000000600052602260045260246000fd5b6000600282049050600182168061108957607f821691505b60208210810361109c5761109b611042565b5b50919050565b600082825260208201905092915050565b60006110be82610bb1565b6110c881856110a2565b93506110d8818560208601610bcd565b6110e181610bf7565b840191505092915050565b6110f581610c41565b82525050565b600060a0820190506111106000830188610dab565b818103602083015261112281876110b3565b9050818103604083015261113681866110b3565b905061114560608301856110ec565b61115260808301846110ec565b9695505050505050565b60008190508160005260206000209050919050565b60006020601f8301049050919050565b600082821b905092915050565b6000600883026111be7fffffffffffffffffffffffffffffffffffffffffffffffffffffffffffffffff82611181565b6111c88683611181565b95508019841693508086168417925050509392505050565b6000819050919050565b60006112056112006111fb84610c41565b6111e0565b610c41565b9050919050565b6000819050919050565b61121f836111ea565b61123361122b8261120c565b84845461118e565b825550505050565b600090565b61124861123b565b611253818484611216565b505050565b5b818110156112775761126c600082611240565b600181019050611259565b5050565b601f8211156112bc5761128d8161115c565b61129684611171565b810160208510156112a5578190505b6112b96112b185611171565b830182611258565b50505b505050565b600082821c905092915050565b60006112df600019846008026112c1565b1980831691505092915050565b60006112f883836112ce565b9150826002028217905092915050565b61131182610bb1565b67ffffffffffffffff81111561132a57611329610e4c565b5b6113348254611071565b61133f82828561127b565b600060209050601f8311600181146113725760008415611360578287015190505b61136a85826112ec565b8655506113d2565b601f1984166113808661115c565b60005b828110156113a857848901518255600182019150602085019450602081019050611383565b868310156113c557848901516113c1601f8916826112ce565b8355505b6001600288020188555050505b50505050505056fe608060405234801561001057600080fd5b50604051612da2380380612da283398181016040528101906100329190610419565b8460008060006101000a81548160ff021916908315150217905550600073ffffffffffffffffffffffffffffffffffffffff168173ffffffffffffffffffffffffffffffffffffffff16036100bf5760006040517f1e4fbdf70000000000000000000000000000000000000000000000000000000081526004016100b691906104db565b60405180910390fd5b6100ce8161014b60201b60201c565b5083600190816100de919061070d565b5082600290816100ee919061070d565b50816003819055506201518081610105919061080e565b426101109190610850565b6004819055506000600560006101000a81548160ff0219169083600281111561013c5761013b610884565b5b021790555050505050506108b3565b60008060019054906101000a900473ffffffffffffffffffffffffffffffffffffffff16905081600060016101000a81548173ffffffffffffffffffffffffffffffffffffffff021916908373ffffffffffffffffffffffffffffffffffffffff1602179055508173ffffffffffffffffffffffffffffffffffffffff168173ffffffffffffffffffffffffffffffffffffffff167f8be0079c531659141344cd1fd0a4f28419497f9722a3daafe3b4186f6b6457e060405160405180910390a35050565b6000604051905090565b600080fd5b600080fd5b600073ffffffffffffffffffffffffffffffffffffffff82169050919050565b600061024f82610224565b9050919050565b61025f81610244565b811461026a57600080fd5b50565b60008151905061027c81610256565b92915050565b600080fd5b600080fd5b6000601f19601f8301169050919050565b7f4e487b7100000000000000000000000000000000000000000000000000000000600052604160045260246000fd5b6102d58261028c565b810181811067ffffffffffffffff821117156102f4576102f361029d565b5b80604052505050565b6000610307610210565b905061031382826102cc565b919050565b600067ffffffffffffffff8211156103335761033261029d565b5b61033c8261028c565b9050602081019050919050565b60005b8381101561036757808201518184015260208101905061034c565b60008484015250505050565b600061038661038184610318565b6102fd565b9050828152602081018484840111156103a2576103a1610287565b5b6103ad848285610349565b509392505050565b600082601f8301126103ca576103c9610282565b5b81516103da848260208601610373565b91505092915050565b6000819050919050565b6103f6816103e3565b811461040157600080fd5b50565b600081519050610413816103ed565b92915050565b600080600080600060a086880312156104355761043461021a565b5b60006104438882890161026d565b955050602086015167ffffffffffffffff8111156104645761046361021f565b5b610470888289016103b5565b945050604086015167ffffffffffffffff8111156104915761049061021f565b5b61049d888289016103b5565b93505060606104ae88828901610404565b92505060806104bf88828901610404565b9150509295509295909350565b6104d581610244565b82525050565b60006020820190506104f060008301846104cc565b92915050565b600081519050919050565b7f4e487b7100000000000000000000000000000000000000000000000000000000600052602260045260246000fd5b6000600282049050600182168061054857607f821691505b60208210810361055b5761055a610501565b5b50919050565b60008190508160005260206000209050919050565b60006020601f8301049050919050565b600082821b905092915050565b6000600883026105c37fffffffffffffffffffffffffffffffffffffffffffffffffffffffffffffffff82610586565b6105cd8683610586565b95508019841693508086168417925050509392505050565b6000819050919050565b600061060a610605610600846103e3565b6105e5565b6103e3565b9050919050565b6000819050919050565b610624836105ef565b61063861063082610611565b848454610593565b825550505050565b600090565b61064d610640565b61065881848461061b565b505050565b5b8181101561067c57610671600082610645565b60018101905061065e565b5050565b601f8211156106c15761069281610561565b61069b84610576565b810160208510156106aa578190505b6106be6106b685610576565b83018261065d565b50505b505050565b600082821c905092915050565b60006106e4600019846008026106c6565b1980831691505092915050565b60006106fd83836106d3565b9150826002028217905092915050565b610716826104f6565b67ffffffffffffffff81111561072f5761072e61029d565b5b6107398254610530565b610744828285610680565b600060209050601f8311600181146107775760008415610765578287015190505b61076f85826106f1565b8655506107d7565b601f19841661078586610561565b60005b828110156107ad57848901518255600182019150602085019450602081019050610788565b868310156107ca57848901516107c6601f8916826106d3565b8355505b6001600288020188555050505b505050505050565b7f4e487b7100000000000000000000000000000000000000000000000000000000600052601160045260246000fd5b6000610819826103e3565b9150610824836103e3565b9250828202610832816103e3565b91508282048414831517610849576108486107df565b5b5092915050565b600061085b826103e3565b9150610866836103e3565b925082820190508082111561087e5761087d6107df565b5b92915050565b7f4e487b7100000000000000000000000000000000000000000000000000000000600052602160045260246000fd5b6124e0806108c26000396000f3fe6080604052600436106101405760003560e01c8063715018a6116100b65780638ece7b911161006f5780638ece7b91146103de578063b85dfb8014610407578063c19d93fb14610444578063ca1d209d1461046f578063de1705701461048b578063f2fde38b146104b657610140565b8063715018a6146102f45780637284e4161461030b5780637497211b146103365780637adba5271461035f5780638456cb591461039c5780638da5cb5b146103b357610140565b80633ccfd60b116101085780633ccfd60b1461022e5780633f4ba83a14610245578063401938831461025c578063590e1ae3146102875780635c975abb1461029e5780636f9fb98a146102c957610140565b8063039af9eb1461014557806306fdde031461018457806310550515146101af57806329dcb0cf146101da578063389b753314610205575b600080fd5b34801561015157600080fd5b5061016c60048036038101906101679190611561565b6104df565b60405161017b9392919061162d565b60405180910390f35b34801561019057600080fd5b506101996105a1565b6040516101a6919061166b565b60405180910390f35b3480156101bb57600080fd5b506101c461062f565b6040516101d19190611704565b60405180910390f35b3480156101e657600080fd5b506101ef6106aa565b6040516101fc919061171f565b60405180910390f35b34801561021157600080fd5b5061022c60048036038101906102279190611561565b6106b0565b005b34801561023a57600080fd5b50610243610758565b005b34801561025157600080fd5b5061025a610870565b005b34801561026857600080fd5b50610271610882565b60405161027e919061171f565b60405180910390f35b34801561029357600080fd5b5061029c610888565b005b3480156102aa57600080fd5b506102b3610a21565b6040516102c09190611755565b60405180910390f35b3480156102d557600080fd5b506102de610a37565b6040516102eb919061171f565b60405180910390f35b34801561030057600080fd5b50610309610a3f565b005b34801561031757600080fd5b50610320610a53565b60405161032d919061166b565b60405180910390f35b34801561034257600080fd5b5061035d60048036038101906103589190611561565b610ae1565b005b34801561036b57600080fd5b50610386600480360381019061038191906117ce565b610bff565b6040516103939190611755565b60405180910390f35b3480156103a857600080fd5b506103b1610c6a565b005b3480156103bf57600080fd5b506103c8610c7c565b6040516103d5919061181d565b60405180910390f35b3480156103ea57600080fd5b506104056004803603810190610400919061196d565b610ca5565b005b34801561041357600080fd5b5061042e600480360381019061042991906119c9565b610d67565b60405161043b919061171f565b60405180910390f35b34801561045057600080fd5b50610459610d85565b6040516104669190611704565b60405180910390f35b61048960048036038101906104849190611561565b610d98565b005b34801561049757600080fd5b506104a0610fcf565b6040516104ad9190611b61565b60405180910390f35b3480156104c257600080fd5b506104dd60048036038101906104d891906119c9565b6110d4565b005b600681815481106104ef57600080fd5b906000526020600020906003020160009150905080600001805461051290611bb2565b80601f016020809104026020016040519081016040528092919081815260200182805461053e90611bb2565b801561058b5780601f106105605761010080835404028352916020019161058b565b820191906000526020600020905b81548152906001019060200180831161056e57829003601f168201915b5050505050908060010154908060020154905083565b600180546105ae90611bb2565b80601f01602080910402602001604051908101604052809291908181526020018280546105da90611bb2565b80156106275780601f106105fc57610100808354040283529160200191610627565b820191906000526020600020905b81548152906001019060200180831161060a57829003601f168201915b505050505081565b60008060028111156106445761064361168d565b5b600560009054906101000a900460ff1660028111156106665761066561168d565b5b148015610674575060045442115b156106945760035447101561068a57600261068d565b60015b90506106a7565b600560009054906101000a900460ff1690505b90565b60045481565b6106b861115a565b600060028111156106cc576106cb61168d565b5b600560009054906101000a900460ff1660028111156106ee576106ed61168d565b5b1461072e576040517f08c379a000000000000000000000000000000000000000000000000000000000815260040161072590611c2f565b60405180910390fd5b620151808161073d9190611c7e565b6004600082825461074e9190611cc0565b9250508190555050565b61076061115a565b6107686111e1565b6001600281111561077c5761077b61168d565b5b600560009054906101000a900460ff16600281111561079e5761079d61168d565b5b146107de576040517f08c379a00000000000000000000000000000000000000000000000000000000081526004016107d590611d40565b60405180910390fd5b600047905060008111610826576040517f08c379a000000000000000000000000000000000000000000000000000000000815260040161081d90611dac565b60405180910390fd5b3373ffffffffffffffffffffffffffffffffffffffff166108fc829081150290604051600060405180830381858888f1935050505015801561086c573d6000803e3d6000fd5b5050565b61087861115a565b6108806112a8565b565b60035481565b6108906111e1565b6002808111156108a3576108a261168d565b5b600560009054906101000a900460ff1660028111156108c5576108c461168d565b5b14610905576040517f08c379a00000000000000000000000000000000000000000000000000000000081526004016108fc90611e18565b60405180910390fd5b6000600760003373ffffffffffffffffffffffffffffffffffffffff1673ffffffffffffffffffffffffffffffffffffffff1681526020019081526020016000206000015490506000811161098f576040517f08c379a000000000000000000000000000000000000000000000000000000000815260040161098690611e84565b60405180910390fd5b6000600760003373ffffffffffffffffffffffffffffffffffffffff1673ffffffffffffffffffffffffffffffffffffffff168152602001908152602001600020600001819055503373ffffffffffffffffffffffffffffffffffffffff166108fc829081150290604051600060405180830381858888f19350505050158015610a1d573d6000803e3d6000fd5b5050565b60008060009054906101000a900460ff16905090565b600047905090565b610a4761115a565b610a51600061130a565b565b60028054610a6090611bb2565b80601f0160208091040260200160405190810160405280929190818152602001828054610a8c90611bb2565b8015610ad95780601f10610aae57610100808354040283529160200191610ad9565b820191906000526020600020905b815481529060010190602001808311610abc57829003601f168201915b505050505081565b610ae961115a565b6006805490508110610b30576040517f08c379a0000000000000000000000000000000000000000000000000000000008152600401610b2790611ef0565b60405180910390fd5b60066001600680549050610b449190611f10565b81548110610b5557610b54611f44565b5b906000526020600020906003020160068281548110610b7757610b76611f44565b5b906000526020600020906003020160008201816000019081610b999190612135565b5060018201548160010155600282015481600201559050506006805480610bc357610bc261221d565b5b600190038181906000526020600020906003020160008082016000610be891906114ba565b600182016000905560028201600090555050905550565b6000600760008473ffffffffffffffffffffffffffffffffffffffff1673ffffffffffffffffffffffffffffffffffffffff168152602001908152602001600020600101600083815260200190815260200160002060009054906101000a900460ff16905092915050565b610c7261115a565b610c7a6113cf565b565b60008060019054906101000a900473ffffffffffffffffffffffffffffffffffffffff16905090565b610cad61115a565b60008111610cf0576040517f08c379a0000000000000000000000000000000000000000000000000000000008152600401610ce790612298565b60405180910390fd5b60066040518060600160405280848152602001838152602001600081525090806001815401808255809150506001900390600052602060002090600302016000909190919091506000820151816000019081610d4c91906122b8565b50602082015181600101556040820151816002015550505050565b60076020528060005260406000206000915090508060000154905081565b600560009054906101000a900460ff1681565b60006002811115610dac57610dab61168d565b5b600560009054906101000a900460ff166002811115610dce57610dcd61168d565b5b14610e0e576040517f08c379a0000000000000000000000000000000000000000000000000000000008152600401610e0590611c2f565b60405180910390fd5b610e16611431565b6006805490508110610e5d576040517f08c379a0000000000000000000000000000000000000000000000000000000008152600401610e54906123d6565b60405180910390fd5b60068181548110610e7157610e70611f44565b5b9060005260206000209060030201600101543414610ec4576040517f08c379a0000000000000000000000000000000000000000000000000000000008152600401610ebb90612442565b60405180910390fd5b60068181548110610ed857610ed7611f44565b5b90600052602060002090600302016002016000815480929190610efa90612462565b919050555034600760003373ffffffffffffffffffffffffffffffffffffffff1673ffffffffffffffffffffffffffffffffffffffff1681526020019081526020016000206000016000828254610f519190611cc0565b925050819055506001600760003373ffffffffffffffffffffffffffffffffffffffff1673ffffffffffffffffffffffffffffffffffffffff168152602001908152602001600020600101600083815260200190815260200160002060006101000a81548160ff021916908315150217905550610fcc6111e1565b50565b60606006805480602002602001604051908101604052809291908181526020016000905b828210156110cb578382906000526020600020906003020160405180606001604052908160008201805461102690611bb2565b80601f016020809104026020016040519081016040528092919081815260200182805461105290611bb2565b801561109f5780601f106110745761010080835404028352916020019161109f565b820191906000526020600020905b81548152906001019060200180831161108257829003601f168201915b505050505081526020016001820154815260200160028201548152505081526020019060010190610ff3565b50505050905090565b6110dc61115a565b600073ffffffffffffffffffffffffffffffffffffffff168173ffffffffffffffffffffffffffffffffffffffff160361114e5760006040517f1e4fbdf7000000000000000000000000000000000000000000000000000000008152600401611145919061181d565b60405180910390fd5b6111578161130a565b50565b611162611472565b73ffffffffffffffffffffffffffffffffffffffff16611180610c7c565b73ffffffffffffffffffffffffffffffffffffffff16146111df576111a3611472565b6040517f118cdaa70000000000000000000000000000000000000000000000000000000081526004016111d6919061181d565b60405180910390fd5b565b600060028111156111f5576111f461168d565b5b600560009054906101000a900460ff1660028111156112175761121661168d565b5b036112a657600454421061126757600354471015611236576002611239565b60015b600560006101000a81548160ff0219169083600281111561125d5761125c61168d565b5b02179055506112a5565b60035447101561127857600061127b565b60015b600560006101000a81548160ff0219169083600281111561129f5761129e61168d565b5b02179055505b5b565b6112b061147a565b60008060006101000a81548160ff0219169083151502179055507f5db9ee0a495bf2e6ff9c91a7834c1ba4fdd244a5e8aa4e537bd38aeae4b073aa6112f3611472565b604051611300919061181d565b60405180910390a1565b60008060019054906101000a900473ffffffffffffffffffffffffffffffffffffffff16905081600060016101000a81548173ffffffffffffffffffffffffffffffffffffffff021916908373ffffffffffffffffffffffffffffffffffffffff1602179055508173ffffffffffffffffffffffffffffffffffffffff168173ffffffffffffffffffffffffffffffffffffffff167f8be0079c531659141344cd1fd0a4f28419497f9722a3daafe3b4186f6b6457e060405160405180910390a35050565b6113d7611431565b60016000806101000a81548160ff0219169083151502179055507f62e78cea01bee320cd4e420270b5ea74000d11b0c9f74754ebdbfc544b05a25861141a611472565b604051611427919061181d565b60405180910390a1565b611439610a21565b15611470576040517fd93c066500000000000000000000000000000000000000000000000000000000815260040160405180910390fd5b565b600033905090565b611482610a21565b6114b8576040517f8dfc202b00000000000000000000000000000000000000000000000000000000815260040160405180910390fd5b565b5080546114c690611bb2565b6000825580601f106114d857506114f7565b601f0160209004906000526020600020908101906114f691906114fa565b5b50565b5b808211156115135760008160009055506001016114fb565b5090565b6000604051905090565b600080fd5b600080fd5b6000819050919050565b61153e8161152b565b811461154957600080fd5b50565b60008135905061155b81611535565b92915050565b60006020828403121561157757611576611521565b5b60006115858482850161154c565b91505092915050565b600081519050919050565b600082825260208201905092915050565b60005b838110156115c85780820151818401526020810190506115ad565b60008484015250505050565b6000601f19601f8301169050919050565b60006115f08261158e565b6115fa8185611599565b935061160a8185602086016115aa565b611613816115d4565b840191505092915050565b6116278161152b565b82525050565b6000606082019050818103600083015261164781866115e5565b9050611656602083018561161e565b611663604083018461161e565b949350505050565b6000602082019050818103600083015261168581846115e5565b905092915050565b7f4e487b7100000000000000000000000000000000000000000000000000000000600052602160045260246000fd5b600381106116cd576116cc61168d565b5b50565b60008190506116de826116bc565b919050565b60006116ee826116d0565b9050919050565b6116fe816116e3565b82525050565b600060208201905061171960008301846116f5565b92915050565b6000602082019050611734600083018461161e565b92915050565b60008115159050919050565b61174f8161173a565b82525050565b600060208201905061176a6000830184611746565b92915050565b600073ffffffffffffffffffffffffffffffffffffffff82169050919050565b600061179b82611770565b9050919050565b6117ab81611790565b81146117b657600080fd5b50565b6000813590506117c8816117a2565b92915050565b600080604083850312156117e5576117e4611521565b5b60006117f3858286016117b9565b92505060206118048582860161154c565b9150509250929050565b61181781611790565b82525050565b6000602082019050611832600083018461180e565b92915050565b600080fd5b600080fd5b7f4e487b7100000000000000000000000000000000000000000000000000000000600052604160045260246000fd5b61187a826115d4565b810181811067ffffffffffffffff8211171561189957611898611842565b5b80604052505050565b60006118ac611517565b90506118b88282611871565b919050565b600067ffffffffffffffff8211156118d8576118d7611842565b5b6118e1826115d4565b9050602081019050919050565b82818337600083830152505050565b600061191061190b846118bd565b6118a2565b90508281526020810184848401111561192c5761192b61183d565b5b6119378482856118ee565b509392505050565b600082601f83011261195457611953611838565b5b81356119648482602086016118fd565b91505092915050565b6000806040838503121561198457611983611521565b5b600083013567ffffffffffffffff8111156119a2576119a1611526565b5b6119ae8582860161193f565b92505060206119bf8582860161154c565b9150509250929050565b6000602082840312156119df576119de611521565b5b60006119ed848285016117b9565b91505092915050565b600081519050919050565b600082825260208201905092915050565b6000819050602082019050919050565b600082825260208201905092915050565b6000611a3e8261158e565b611a488185611a22565b9350611a588185602086016115aa565b611a61816115d4565b840191505092915050565b611a758161152b565b82525050565b60006060830160008301518482036000860152611a988282611a33565b9150506020830151611aad6020860182611a6c565b506040830151611ac06040860182611a6c565b508091505092915050565b6000611ad78383611a7b565b905092915050565b6000602082019050919050565b6000611af7826119f6565b611b018185611a01565b935083602082028501611b1385611a12565b8060005b85811015611b4f5784840389528151611b308582611acb565b9450611b3b83611adf565b925060208a01995050600181019050611b17565b50829750879550505050505092915050565b60006020820190508181036000830152611b7b8184611aec565b905092915050565b7f4e487b7100000000000000000000000000000000000000000000000000000000600052602260045260246000fd5b60006002820490506001821680611bca57607f821691505b602082108103611bdd57611bdc611b83565b5b50919050565b7f43616d706169676e206973206e6f74206163746976652e000000000000000000600082015250565b6000611c19601783611599565b9150611c2482611be3565b602082019050919050565b60006020820190508181036000830152611c4881611c0c565b9050919050565b7f4e487b7100000000000000000000000000000000000000000000000000000000600052601160045260246000fd5b6000611c898261152b565b9150611c948361152b565b9250828202611ca28161152b565b91508282048414831517611cb957611cb8611c4f565b5b5092915050565b6000611ccb8261152b565b9150611cd68361152b565b9250828201905080821115611cee57611ced611c4f565b5b92915050565b7f43616d706169676e206e6f74207375636365737366756c2e0000000000000000600082015250565b6000611d2a601883611599565b9150611d3582611cf4565b602082019050919050565b60006020820190508181036000830152611d5981611d1d565b9050919050565b7f4e6f2062616c616e636520746f20776974686472617700000000000000000000600082015250565b6000611d96601683611599565b9150611da182611d60565b602082019050919050565b60006020820190508181036000830152611dc581611d89565b9050919050565b7f526566756e6473206e6f7420617661696c61626c652e00000000000000000000600082015250565b6000611e02601683611599565b9150611e0d82611dcc565b602082019050919050565b60006020820190508181036000830152611e3181611df5565b9050919050565b7f4e6f20636f6e747269627574696f6e7320746f20726566756e642e0000000000600082015250565b6000611e6e601b83611599565b9150611e7982611e38565b602082019050919050565b60006020820190508181036000830152611e9d81611e61565b9050919050565b7f5469657220646f6573206e6f742065786973742e000000000000000000000000600082015250565b6000611eda601483611599565b9150611ee582611ea4565b602082019050919050565b60006020820190508181036000830152611f0981611ecd565b9050919050565b6000611f1b8261152b565b9150611f268361152b565b9250828203905081811115611f3e57611f3d611c4f565b5b92915050565b7f4e487b7100000000000000000000000000000000000000000000000000000000600052603260045260246000fd5b600081549050611f8281611bb2565b9050919050565b60008190508160005260206000209050919050565b60006020601f8301049050919050565b600082821b905092915050565b600060088302611feb7fffffffffffffffffffffffffffffffffffffffffffffffffffffffffffffffff82611fae565b611ff58683611fae565b95508019841693508086168417925050509392505050565b6000819050919050565b600061203261202d6120288461152b565b61200d565b61152b565b9050919050565b6000819050919050565b61204c83612017565b61206061205882612039565b848454611fbb565b825550505050565b600090565b612075612068565b612080818484612043565b505050565b5b818110156120a45761209960008261206d565b600181019050612086565b5050565b601f8211156120e9576120ba81611f89565b6120c384611f9e565b810160208510156120d2578190505b6120e66120de85611f9e565b830182612085565b50505b505050565b600082821c905092915050565b600061210c600019846008026120ee565b1980831691505092915050565b600061212583836120fb565b9150826002028217905092915050565b81810361214357505061221b565b61214c82611f73565b67ffffffffffffffff81111561216557612164611842565b5b61216f8254611bb2565b61217a8282856120a8565b6000601f8311600181146121a95760008415612197578287015490505b6121a18582612119565b865550612214565b601f1984166121b787611f89565b96506121c286611f89565b60005b828110156121ea578489015482556001820191506001850194506020810190506121c5565b868310156122075784890154612203601f8916826120fb565b8355505b6001600288020188555050505b5050505050505b565b7f4e487b7100000000000000000000000000000000000000000000000000000000600052603160045260246000fd5b7f416d6f756e74206d7573742062652067726561746572207468616e20302e0000600082015250565b6000612282601e83611599565b915061228d8261224c565b602082019050919050565b600060208201905081810360008301526122b181612275565b9050919050565b6122c18261158e565b67ffffffffffffffff8111156122da576122d9611842565b5b6122e48254611bb2565b6122ef8282856120a8565b600060209050601f8311600181146123225760008415612310578287015190505b61231a8582612119565b865550612382565b601f19841661233086611f89565b60005b8281101561235857848901518255600182019150602085019450602081019050612333565b868310156123755784890151612371601f8916826120fb565b8355505b6001600288020188555050505b505050505050565b7f496e76616c696420746965722e00000000000000000000000000000000000000600082015250565b60006123c0600d83611599565b91506123cb8261238a565b602082019050919050565b600060208201905081810360008301526123ef816123b3565b9050919050565b7f496e76616c696420616d6f756e742e0000000000000000000000000000000000600082015250565b600061242c600f83611599565b9150612437826123f6565b602082019050919050565b6000602082019050818103600083015261245b8161241f565b9050919050565b600061246d8261152b565b91507fffffffffffffffffffffffffffffffffffffffffffffffffffffffffffffffff820361249f5761249e611c4f565b5b60018201905091905056fea26469706673582212203c91607d174b5312f228a6a689affa10907d709c660cac15dccb7219e2c8648a64736f6c634300081b0033a2646970667358221220f9d440053f2d5b16b763d24f79dffc760fc319351c17d6da43b157bf3fddbfe464736f6c634300081b0033",
  "devdoc": {
    "errors": {
      "EnforcedPause()": [
        {
          "details": "The operation failed because the contract is paused."
        }
      ],
      "ExpectedPause()": [
        {
          "details": "The operation failed because the contract is not paused."
        }
      ],
      "OwnableInvalidOwner(address)": [
        {
          "details": "The owner is not a valid owner account. (eg. `address(0)`)"
        }
      ],
      "OwnableUnauthorizedAccount(address)": [
        {
          "details": "The caller account is not authorized to perform an operation."
        }
      ]
    },
    "events": {
      "Paused(address)": {
        "details": "Emitted when the pause is triggered by `account`."
      },
      "Unpaused(address)": {
        "details": "Emitted when the pause is lifted by `account`."
      }
    },
    "kind": "dev",
    "methods": {
      "owner()": {
        "details": "Returns the address of the current owner."
      },
      "paused()": {
        "details": "Returns true if the contract is paused, and false otherwise."
      },
      "renounceOwnership()": {
        "details": "Leaves the contract without owner. It will not be possible to call `onlyOwner` functions. Can only be called by the current owner. NOTE: Renouncing ownership will leave the contract without an owner, thereby disabling any functionality that is only available to the owner."
      },
      "transferOwnership(address)": {
        "details": "Transfers ownership of the contract to a new account (`newOwner`). Can only be called by the current owner."
      }
    },
    "version": 1
  },
  "userdoc": {
    "kind": "user",
    "methods": {},
    "version": 1
  },
  "storageLayout": {
    "storage": [
      {
        "astId": 186,
        "contract": "contracts/CrowdfundingFactory.sol:CrowdfundingFactory",
        "label": "_paused",
        "offset": 0,
        "slot": "0",
        "type": "t_bool"
      },
      {
        "astId": 8,
        "contract": "contracts/CrowdfundingFactory.sol:CrowdfundingFactory",
        "label": "_owner",
        "offset": 1,
        "slot": "0",
        "type": "t_address"
      },
      {
        "astId": 777,
        "contract": "contracts/CrowdfundingFactory.sol:CrowdfundingFactory",
        "label": "campaigns",
        "offset": 0,
        "slot": "1",
        "type": "t_array(t_struct(Campaign)773_storage)dyn_storage"
      },
      {
        "astId": 783,
        "contract": "contracts/CrowdfundingFactory.sol:CrowdfundingFactory",
        "label": "userCampaigns",
        "offset": 0,
        "slot": "2",
        "type": "t_mapping(t_address,t_array(t_struct(Campaign)773_storage)dyn_storage)"
      }
    ],
    "types": {
      "t_address": {
        "encoding": "inplace",
        "label": "address",
        "numberOfBytes": "20"
      },
      "t_array(t_struct(Campaign)773_storage)dyn_storage": {
        "base": "t_struct(Campaign)773_storage",
        "encoding": "dynamic_array",
        "label": "struct CrowdfundingFactory.Campaign[]",
        "numberOfBytes": "32"
      },
      "t_bool": {
        "encoding": "inplace",
        "label": "bool",
        "numberOfBytes": "1"
      },
      "t_mapping(t_address,t_array(t_struct(Campaign)773_storage)dyn_storage)": {
        "encoding": "mapping",
        "key": "t_address",
        "label": "mapping(address => struct CrowdfundingFactory.Campaign[])",
        "numberOfBytes": "32",
        "value": "t_array(t_struct(Campaign)773_storage)dyn_storage"
      },
      "t_string_storage": {
        "encoding": "bytes",
        "label": "string",
        "numberOfBytes": "32"
      },
      "t_struct(Campaign)773_storage": {
        "encoding": "inplace",
        "label": "struct CrowdfundingFactory.Campaign",
        "members": [
          {
            "astId": 766,
            "contract": "contracts/CrowdfundingFactory.sol:CrowdfundingFactory",
            "label": "owner",
            "offset": 0,
            "slot": "0",
            "type": "t_address"
          },
          {
            "astId": 768,
            "contract": "contracts/CrowdfundingFactory.sol:CrowdfundingFactory",
            "label": "campaignAddress",
            "offset": 0,
            "slot": "1",
            "type": "t_address"
          },
          {
            "astId": 770,
            "contract": "contracts/CrowdfundingFactory.sol:CrowdfundingFactory",
            "label": "name",
            "offset": 0,
            "slot": "2",
            "type": "t_string_storage"
          },
          {
            "astId": 772,
            "contract": "contracts/CrowdfundingFactory.sol:CrowdfundingFactory",
            "label": "creationTime",
            "offset": 0,
            "slot": "3",
            "type": "t_uint256"
          }
        ],
        "numberOfBytes": "128"
      },
      "t_uint256": {
        "encoding": "inplace",
        "label": "uint256",
        "numberOfBytes": "32"
      }
    }
  }
}